:100000000C9466000C948E000C948E000C948E0060
:100010000C948E000C948E000C948E000C948E0028
:100020000C948E000C94920B0C948E000C948E0009
:100030000C948E000C948E000C948E000C948E0008
:100040000C9402070C948E000C9435040C946704F5
:100050000C948E000C948E000C948E000C948E00E8
:100060000C948E000C948E00750882088F089C08F2
:10007000A908B608C308D008000000080002010063
:100080000003040700000000000000000102040853
:1000900010204080010204081020010204081020F2
:1000A000040404040404040402020202020203031E
:1000B0000303030300000000250028002B000000BC
:1000C0000000240027002A009704D10B11241FBE32
:1000D000CFEFD8E0DEBFCDBF11E0A0E0B1E0EAE7AE
:1000E000FDE102C005900D92A637B107D9F723E0D4
:1000F000A6E7B1E001C01D92A23BB207E1F710E014
:10010000CCECD0E004C02297FE010E94200CC83C39
:10011000D107C9F70E94F3060C94BB0E0C940000A3
:10012000EF92FF920F931F93CF93DF93EC018CE933
:10013000E82E80E0F82EF70194910EEA10E0F80125
:10014000249130E0220F331F2C543F4FF901A59129
:10015000B4918C91892B8C9361E0CE010E94E608CA
:10016000F7014491F801249130E0220F331F2C5401
:100170003F4FF901A591B4918C9190E0242F30E08C
:1001800020953095822393238C9361E0CE010E94C9
:10019000E608F701E490F8010491E02FF0E0EE0F9B
:1001A000FF1FEC54FF4FA591B4918C918E298C9335
:1001B00061E0CE010E94E608CC57DE4F1882DF9145
:1001C000CF911F910F91FF90EF900895DF92EF92E2
:1001D000FF920F931F93CF93DF93CDB7DEB769974D
:1001E0000FB6F894DEBF0FBECDBF8DE0EAE3F1E0BD
:1001F000DE01119601900D928A95E1F7CE010196EC
:100200007C018E01025F1F4FF701D1907F0161E0F9
:100210008D2D0E94FB0760E08D2D0E943408E016B2
:10022000F10691F788E292E00E9490008091B1007F
:1002300085608093B1008091B1008D7F8093B10083
:100240008091B0008C7F8093B0008091B600806276
:100250008093B600809170008160809370008FEF72
:100260008093B200789466E071E088E292E00E94A8
:10027000E70860E070E08DEA93E00E94E00B9DEFFC
:10028000980F9C3F70F041E0480F60E070E08DEA0D
:1002900093E00E94E30BE0917601F09177010995DC
:1002A00007C040E060E070E08DEA93E00E94E30B5D
:1002B00026E040E855E260E070E082E891E00E94CC
:1002C000D3034AE060913901CE0101960E946C0689
:1002D0004AE060918101CE0144960E946C066CE474
:1002E00071E0C8010E943E06BE016C5E7F4FC801EE
:1002F0000E94C5066BE571E00E94D806BE016F5FE3
:100300007F4F0E94C5066DE571E00E94D806BC01D2
:1003100082E891E00E944105C8010E94D005CE010B
:1003200044960E94D005CE0101960E94D00585E03A
:10033000E7E4F1E0DE01119601900D928A95E1F774
:100340008E010F5F1F4F7E01F6E0EF0EF11C0E15C0
:100350001F05C9F0F80181918F0190E0FC01EE0FBB
:10036000FF1FE80FF91FE75FFE4F22814181608187
:1003700088E292E00E94B50968EE73E080E090E0C8
:100380000E946F07E4CFE091AA03F091AB038FEFD7
:10039000808389E98183128269960FB6F894DEBF63
:1003A0000FBECDBFDF91CF911F910F91FF90EF90C6
:1003B000DF900895EF92FF920F931F93CF93DF93F7
:1003C000CDB7DEB728970FB6F894DEBF0FBECDBF0E
:1003D000FE01319698E0DF011D929A95E9F79FEFB3
:1003E00099839A83909181019B83909139019C8399
:1003F0008D836E834F838F017E01B9E0EB0EF11C7C
:100400000E151F0551F0F80161918F014AE050E08F
:1004100082E891E00E94B905F3CF28960FB6F894D0
:10042000DEBF0FBECDBFDF91CF911F910F91FF9027
:10043000EF90089580917A0191E0980F90937A015E
:10044000811105C040E062ED80EB0E94DA019091DD
:100450007801992339F080917901890F809379018E
:10046000882331F062E070E080E090E00C946F0748
:10047000F8948091A8039091A9032091AA03309148
:10048000AB033093A9032093A8039093AB0380930D
:10049000AA037894E7CFCF93DF9382E891E00E949C
:1004A000EE02892B39F082E891E00E94FB028F3F37
:1004B000910581F482E891E00E94EE0208970CF425
:1004C0008AC082E891E00E9409038F3F910509F0FC
:1004D00082C005C082E891E00E940903DECF82E875
:1004E00091E00E94FB028F3F9105F1F182E891E0DB
:1004F0000E9409039093800180937F0182E891E03C
:100500000E94090390937E0180937D01C0E0D8E1B1
:1005100082E891E00E94090390937C0180937B0123
:10052000FC01EE0FFF1FE80FF91FE75FFE4F32815E
:100530004181508120917F012C0F80917D018D9F01
:10054000C001112463E0269F800D911D1124E091CC
:10055000AA03F091AB03E80FF91F50834183328364
:10056000CF5FC430A9F637C082E891E00E9409034A
:1005700082E891E00E940903C82F82E891E00E947E
:100580000903D82F82E891E00E940903C13AB9F02B
:10059000C93AD1F0C03AF9F4F8948091A803909147
:1005A000A9032091AA033091AB033093A9032093B0
:1005B000A8039093AB038093AA0378940CC0D093C4
:1005C00078011092790107C0E0917601F0917701EE
:1005D000DF91CF910994DF91CF910895FC01818D36
:1005E000228D90E0805C9F4F821B910960E470E057
:1005F0000E94E80B0895FC01918D828D981731F0CF
:10060000828DE80FF11D858D90E008958FEF9FEFAB
:100610000895FC01918D828D981761F0828DDF0124
:10062000A80FB11D5D968C91928D9F5F9F73928FE5
:1006300090E008958FEF9FEF08958DE894E0892B67
:1006400049F08BE492E0892B29F00E948D048111FE
:100650000C944B020895FC01848DDF01A80FB11D9D
:10066000A35ABF4F2C91848D90E001968F739927E8
:10067000848FA689B7892C93A089B1898C918064D5
:100680008C93938D848D981306C00288F389E02D96
:1006900080818F7D80830895CF93DF93EC01888DD7
:1006A0008823C9F0EA89FB89808185FD05C0A88976
:1006B000B9898C9186FD0FC00FB607FCF5CF8081FC
:1006C00085FFF2CFA889B9898C9185FFEDCFCE0146
:1006D0000E942B03E7CFDF91CF910895CF92DF9255
:1006E000FF920F931F93CF93DF931F92CDB7DEB787
:1006F0006C01DC015B969C915B975C968C915C979E
:10070000981307C05096ED91FC915197808185FD1B
:1007100032C0F601038D10E00F5F1F4F0F731127DA
:10072000F02EF601848DF81211C00FB607FCF9CF38
:10073000D6015096ED91FC915197808185FFF1CFC4
:10074000C60169830E942B036981EBCF838DE80F7B
:10075000F11DE35AFF4F6083D6015B960C935B97C4
:100760005296ED91FC91539780818062808381E065
:1007700058968C930DC0D6015696ED91FC915797E3
:1007800060835096ED91FC915197808180648083C5
:1007900081E090E00F90DF91CF911F910F91FF903A
:1007A000DF90CF900895BF92CF92DF92EF92FF92A9
:1007B000CF93DF93EC016A017B01B22EE889F989BE
:1007C00082E08083411581EE580761057105A1F033
:1007D00060E079E08DE390E0A70196010E94FC0BB8
:1007E000215031094109510956954795379527956B
:1007F000211580E1380798F0E889F989108260E8CE
:1008000074E88EE190E0A70196010E94FC0B215054
:100810003109410951095695479537952795EC853A
:10082000FD853083EE85FF852083188EEC89FD8958
:10083000B082EA89FB89808180618083EA89FB89B3
:10084000808188608083EA89FB89808180688083D9
:10085000EA89FB8980818F7D8083DF91CF91FF9032
:10086000EF90DF90CF90BF9008951F920F920FB638
:100870000F9211242F938F939F93EF93FF93E09107
:100880009201F09193018081E0919801F09199019A
:1008900082FD12C0908180919B018F5F8F732091A8
:1008A0009C01821751F0E0919B01F0E0EE57FE4F62
:1008B000958F80939B0101C08081FF91EF919F9163
:1008C0008F912F910F900FBE0F901F9018951F9230
:1008D0000F920FB60F9211242F933F934F935F9374
:1008E0006F937F938F939F93AF93BF93EF93FF93F8
:1008F00082E891E00E942B03FF91EF91BF91AF91AD
:100900009F918F917F916F915F914F913F912F9127
:100910000F900FBE0F901F90189582E891E00E94F3
:10092000EE0221E0892B09F420E0822F0895109235
:1009300085011092840188EE93E0A0E0B0E08093FE
:10094000860190938701A0938801B093890189E67D
:1009500091E0909383018093820185EC90E09093E5
:100960008F0180938E0184EC90E0909391018093AD
:10097000900180EC90E0909393018093920181EC40
:1009800090E0909395018093940182EC90E0909395
:1009900097018093960186EC90E090939901809363
:1009A000980110929B0110929C0110929D0110924F
:1009B0009E010895CF92DF92EF92FF920F931F93C3
:1009C000CF93DF936C017A01EB01E60EF71E00E096
:1009D00010E0CE15DF0561F06991D601ED91FC9133
:1009E0000190F081E02DC6010995080F191FF1CF84
:1009F000C801DF91CF911F910F91FF90EF90DF9091
:100A0000CF9008956115710581F0DB010D900020F4
:100A1000E9F7AD0141505109461B570BDC01ED913F
:100A2000FC910280F381E02D099480E090E008952C
:100A3000DC01ED91FC91DB0114964D915C911597D1
:100A40006D917C910280F381E02D0994DC01ED91A0
:100A5000FC910190F081E02D09940F931F93CF93A7
:100A6000DF93EC016DE00E9426058C016AE0CE0167
:100A70000E942605800F911FDF91CF911F910F914A
:100A800008950F931F93CF93DF93EC010E941805F5
:100A90008C01CE010E942D05800F911FDF91CF9117
:100AA0001F910F9108958F929F92AF92BF92CF9214
:100AB000DF92EF92FF920F931F93CF93DF93CDB707
:100AC000DEB7A1970FB6F894DEBF0FBECDBF7C0195
:100AD000C42EE52FCB01D22E19A221E02D1510F046
:100AE0002AE0D22E8E010F5D1F4F8D2C912CA12C50
:100AF000B12C6C2D7E2FA50194010E94FC0B8C2D36
:100B0000D29E80191124015011098A3014F4805D9D
:100B100001C0895CF801808321153105410551052B
:100B200021F0C22EE32FCA01E4CFB801C7010E9411
:100B30000205A1960FB6F894DEBF0FBECDBFDF91C0
:100B4000CF911F910F91FF90EF90DF90CF90BF90CA
:100B5000AF909F908F9008952115310541F4DC01ED
:100B6000ED91FC910190F081E02D642F09940C949B
:100B700053050F931F93CF93DF93EC019A01462FF8
:100B800050E060E070E00E94AC058C01CE010E9454
:100B90002D05800F911FDF91CF911F910F91089527
:100BA000FC01808191810C94D00CCF93DF93EC01F8
:100BB00088819981009711F00E94D00C19821882C7
:100BC0001D821C821B821A82DF91CF9108950F93A0
:100BD0001F93CF93DF93EC018B016F5F7F4F888171
:100BE00099810E945F0D009731F0998388831B8360
:100BF0000A8381E001C080E0DF91CF911F910F91C6
:100C00000895CF93DF93EC0188819981892B29F096
:100C10008A819B818617970760F4CE010E94E705C1
:100C2000882341F08C819D81892B19F4E881F98119
:100C3000108281E0DF91CF910895EF92FF920F93A0
:100C40001F93CF93DF93EC017B018A01BA010E94CD
:100C50000106811104C0CE010E94D50507C01D8385
:100C60000C83B701888199810E94320ECE01DF91F9
:100C7000CF911F910F91FF90EF900895FC01118289
:100C8000108213821282158214826115710559F047
:100C9000FB0101900020E9F7AF0141505109461BCB
:100CA000570B0C941D060895CF93DF93EC0161154B
:100CB000710561F0FB0101900020E9F7AF0141509F
:100CC0005109461B570B0E941D0602C00E94D50504
:100CD000CE01DF91CF9108950F931F93CF93DF93B0
:100CE000CDB7DEB729970FB6F894DEBF0FBECDBFE4
:100CF0008C01862FF80111821082138212821582D4
:100D0000148250E0BE016F5F7F4F90E00E94390E69
:100D1000BE016F5F7F4FC8010E94540629960FB62F
:100D2000F894DEBF0FBECDBFDF91CF911F910F9121
:100D30000895EF92FF920F931F93CF93DF93EC01EF
:100D40007B010C811D816115710511F480E016C0D5
:100D50004115510591F0040F151FB8010E940106BD
:100D60008823A1F3288139818C819D81B701820F6D
:100D7000931F0E94320E1D830C8381E0DF91CF917F
:100D80001F910F91FF90EF900895CF93DF93EC01A7
:100D9000FB0144815581608171810E949906811116
:100DA00003C0CE010E94D505CE01DF91CF910895F9
:100DB000CF93DF93EC016115710569F0FB010190A0
:100DC0000020E9F7AF0141505109461B570B0E9423
:100DD0009906811103C0CE010E94D505CE01DF9195
:100DE000CF91089508950E9497070E94F2060E94ED
:100DF000E600CDE1D3E00E941A022097E1F30E94C1
:100E00001D03F9CF1F920F920FB60F9211242F934B
:100E10003F938F939F93AF93BF93809120029091C4
:100E20002102A0912202B091230230911F0223E0FF
:100E3000230F2D3720F40196A11DB11D05C026E812
:100E4000230F0296A11DB11D20931F028093200243
:100E500090932102A0932202B09323028091240256
:100E600090912502A0912602B09127020196A11D22
:100E7000B11D8093240290932502A0932602B09383
:100E80002702BF91AF919F918F913F912F910F902A
:100E90000FBE0F901F9018953FB7F89480912402D1
:100EA00090912502A0912602B091270226B5A89B19
:100EB00005C02F3F19F00196A11DB11D3FBF662748
:100EC000782F892F9A2F620F711D811D911D42E08D
:100ED000660F771F881F991F4A95D1F70895CF9203
:100EE000DF92EF92FF92CF93DF936B017C010E9420
:100EF0004C07EB01C114D104E104F10489F00E9414
:100F0000E70B0E944C076C1B7D0B683E734090F30F
:100F100081E0C81AD108E108F108C851DC4FEACFD6
:100F2000DF91CF91FF90EF90DF90CF90089578946C
:100F300084B5826084BD84B5816084BD85B58260DE
:100F400085BD85B5816085BDEEE6F0E0808181607C
:100F50008083E1E8F0E0108280818260808380817C
:100F600081608083E0E8F0E0808181608083E1EB54
:100F7000F0E0808184608083E0EBF0E0808181603C
:100F80008083EAE7F0E080818460808380818260F2
:100F900080838081816080838081806880831092DB
:100FA000C1000895833081F028F4813099F08230B7
:100FB000A1F008958730A9F08830B9F08430D1F4D9
:100FC000809180008F7D03C0809180008F77809317
:100FD0008000089584B58F7702C084B58F7D84BD6D
:100FE00008958091B0008F7703C08091B0008F7D0D
:100FF0008093B0000895CF93DF9390E0FC01E45715
:10100000FF4F2491FC01E056FF4F8491882349F162
:1010100090E0880F991FFC01E254FF4FA591B49115
:101020008C549F4FFC01C591D4919FB7611108C0AA
:10103000F8948C91209582238C93888182230AC016
:10104000623051F4F8948C91322F309583238C9335
:101050008881822B888304C0F8948C91822B8C9396
:101060009FBFDF91CF9108950F931F93CF93DF938D
:101070001F92CDB7DEB7282F30E0F901E858FF4FB7
:101080008491F901E457FF4F1491F901E056FF4FA5
:1010900004910023C9F0882321F069830E94D207BC
:1010A0006981E02FF0E0EE0FFF1FEC54FF4FA59198
:1010B000B4919FB7F8948C91611103C0109581236E
:1010C00001C0812B8C939FBF0F90DF91CF911F9117
:1010D0000F910895862F90E08830910508F06FC039
:1010E000FC01EC5CFF4F0C941E0CE8EAF0E0E4918C
:1010F000F0E0EE0FFF1FEC54FF4FA591B491E4E92F
:10110000F0E05AC0E9EAF0E0E491F0E0EE0FFF1FF2
:10111000EC54FF4FA591B491E5E9F0E04DC0EAEA47
:10112000F0E0E491F0E0EE0FFF1FEC54FF4FA591CB
:10113000B491E6E9F0E040C0EBEAF0E0E491F0E0E1
:10114000EE0FFF1FEC54FF4FA591B491E7E9F0E0DB
:1011500033C0ECEAF0E0E491F0E0EE0FFF1FEC5456
:10116000FF4FA591B491E8E9F0E026C0EDEAF0E088
:10117000E491F0E0EE0FFF1FEC54FF4FA591B49106
:10118000E9E9F0E019C0E3EAF0E0E491F0E0EE0F05
:10119000FF1FEC54FF4FA591B491EFE8F0E00CC0B5
:1011A000E4EAF0E0E491F0E0EE0FFF1FEC54FF4FB3
:1011B000A591B491E0E9F0E0E491EC93089585B154
:1011C000807C85B98BB1807C8BB9089508955F923E
:1011D0006F927F928F929F92AF92BF92CF92DF9247
:1011E000EF92FF920F931F93CF93DF93EBE9F0E021
:1011F0002491EFEAF0E0E491F0E0EE0FFF1FEC54F1
:10120000FF4FA591B4918C9190E0E22FF0E0E09532
:10121000F0958E239F238C932AE930E0F9014491C5
:1012200050EB852E50E0952EF4018491E82FF0E0EC
:10123000EE0FFF1FEC54FF4FA591B4918C9190E0FD
:1012400050E040955095842395238C93B8E07B2EF5
:101250006D5F7F4F43E950E0C7EAD0E002E910E05C
:1012600086EAE82E80E0F82EDB0183E0682EBE904F
:10127000BB0CBB0C96E0A92EFA01B7FE10C0D490AF
:10128000FE018491E82FF0E0EE0FFF1FEC54FF4FBA
:1012900085919491FC01C080CD28C08216C05490E5
:1012A000FE01849190E0880F991F8C549F4FFC01A0
:1012B000C590D490F601808190E0E52DF0E0E095B6
:1012C000F0958E239F23F6018083BB0CF801549088
:1012D000F701849190E0880F991F8C549F4FFC0177
:1012E000C590D490F601808190E0E52DF0E0E09586
:1012F000F0958E239F23F6018083F801D490F701A7
:101300008491E82FF0E0EE0FFF1FEC54FF4F859122
:101310009491FC01C080CD28C082AA9409F0ACCF82
:101320006A9409F0A4CF7A9409F09ECFF901249130
:10133000F4018490E82DF0E0EE0FFF1FEC54FF4F16
:10134000A591B4918C91822B8C93DF91CF911F91B9
:101350000F91FF90EF90DF90CF90BF90AF909F9054
:101360008F907F906F905F900895EF92FF920F9310
:101370001F93CF93DF937C013EE7E31A3EEFF30A1E
:10138000D701CD91DC9138E0E0E0F0E08E010E0F66
:101390001F1FD8016C9311964C93119712962C93A2
:1013A0003396E831F10591F76896315069F7F89472
:1013B000FC01E058FE4F80819181D7012D913C9135
:1013C0001197318320838D939C937894DF91CF91F3
:1013D0001F910F91FF90EF9008952F923F924F929F
:1013E0005F926F927F928F929F92AF92BF92CF92B5
:1013F000DF92EF92FF920F931F93CF93DF9300D072
:101400001F92CDB7DEB7EAE9F0E03491E0EBF0E00F
:10141000E491F0E0EE0FFF1FEC54FF4FA591B49163
:101420002C91232B2C930BE910E0F8014491EFEA67
:10143000F0E02491E22FF0E0EE0FFF1FEC54FF4F9D
:10144000A591B4912C9130E050E040955095242323
:1014500035232C93FC01EC57FE4F20813497E0801C
:10146000F180F8E12F9FE00CF11C112440E050E0E6
:1014700083E990E027EA30E062E9462E60E0562EEC
:1014800076EA672E70E0772EB201D3016701C40EB1
:10149000D51EF6013280E8E02E2E37FE11C0FC0189
:1014A0009490F901B490EB2DF0E0EE0FFF1FEC5497
:1014B000FF4FA590B490F50180808928808217C0E5
:1014C000F901B490EB2DF0E0EE0FFF1FEC54FF4F4D
:1014D00085909490F401A080B12CFC01F491EF2F41
:1014E000F0E0E095F095AE22BF22F401A082330C2B
:1014F000F301B490EB2DF0E0EE0FFF1FEC54FF4F23
:1015000085909490F401A080B12CF201F491EF2F1A
:10151000F0E0E095F095AE22BF22F401A082F20146
:101520009490F301B490EB2DF0E0EE0FFF1FEC541C
:10153000FF4FA590B490F5018080892880822A947D
:1015400009F0ABCFF6013180E8E02E2E37FE11C056
:10155000FC019490F901B490EB2DF0E0EE0FFF1F29
:10156000EC54FF4FA590B490F501808089288082CB
:1015700017C0F901B490EB2DF0E0EE0FFF1FEC5413
:10158000FF4F85909490F401A080B12CFC01F49160
:10159000EF2FF0E0E095F095AE22BF22F401A0829B
:1015A000330CFD01B490EB2DF0E0EE0FFF1FEC5477
:1015B000FF4F85909490F401A080B12CFB01F49131
:1015C000EF2FF0E0E095F095AE22BF22F401A0826B
:1015D000FB019490FD01B490EB2DF0E0EE0FFF1FA6
:1015E000EC54FF4FA590B490F5018080892880824B
:1015F0002A9409F0ABCFF6019080E8E08E2EFC0132
:1016000097FE10C0B490F901D490ED2DF0E0EE0FEC
:10161000FF1FEC54FF4FC590D490F601A080AB287B
:10162000A08215C0C490F901D490ED2DF0E0EE0F2A
:10163000FF1FEC54FF4FA590B490F501D0802D2CE6
:10164000312CD12CC094D0942C203D202082990C98
:10165000FB01C490FD01D490ED2DF0E0EE0FFF1FD3
:10166000EC54FF4FA590B490F501D0802D2C312C77
:10167000D12CC094D0942C203D202082FB01B4902A
:10168000FD01D490ED2DF0E0EE0FFF1FEC54FF4F65
:10169000C590D490F601A080AB28A0828A9409F06E
:1016A000AECF4D5F5F4F4831510509F0EFCEF801E5
:1016B0009491EFEAF0E08491E82FF0E0EE0FFF1F45
:1016C000EC54FF4FA591B4918C91892B8C93F80128
:1016D0000491EFEAF0E08491E82FF0E0EE0FFF1FB5
:1016E000EC54FF4FA591B4918C9190E010E00095DF
:1016F0001095802391238C930F900F900F90DF9182
:10170000CF911F910F91FF90EF90DF90CF90BF90FE
:10171000AF909F908F907F906F905F904F903F9091
:101720002F9008951F920F920FB60F9211242F93AE
:101730003F934F935F936F937F938F939F93AF9359
:10174000BF93EF93FF938DE38093B20085B1807CCC
:1017500085B98BB1807C8BB988E292E00E94ED095B
:101760006091AC0388E292E00E946A088091AC0329
:101770008F5F883018F48093AC0302C01092AC03E2
:10178000FF91EF91BF91AF919F918F917F916F9159
:101790005F914F913F912F910F900FBE0F901F902F
:1017A00018951092AC0388E292E09093AB0380937B
:1017B000AA0388EE92E09093A9038093A80308956A
:1017C000CB010C945E0ECB01642F0C94660E089531
:1017D00097FB072E16F4009407D077FD09D00E94DE
:1017E000240C07FC05D03EF4909581959F4F0895F9
:1017F000709561957F4F0895A1E21A2EAA1BBB1B1D
:10180000FD010DC0AA1FBB1FEE1FFF1FA217B307CC
:10181000E407F50720F0A21BB30BE40BF50B661FE2
:10182000771F881F991F1A9469F7609570958095A6
:1018300090959B01AC01BD01CF010895EE0FFF1FF4
:101840000590F491E02D0994AA1BBB1B51E107C040
:10185000AA1FBB1FA617B70710F0A61BB70B881F40
:10186000991F5A95A9F780959095BC01CD010895CF
:10187000CF93DF938230910510F482E090E0E09105
:10188000B003F091B10320E030E0A0E0B0E0309789
:1018900039F14081518148175907B8F04817590765
:1018A00071F482819381109729F013969C938E9303
:1018B00012972CC09093B1038093B00327C02115D9
:1018C000310531F04217530718F0A901DB0101C0BF
:1018D000EF019A01BD01DF010280F381E02DD7CF36
:1018E00021153105F9F0281B390B2430310580F41E
:1018F0008A819B816115710521F0FB0193838283AD
:1019000004C09093B1038093B003FE01329644C0AB
:10191000FE01E20FF31F8193919322503109398325
:1019200028833AC02091AE033091AF03232B41F4BA
:1019300020910201309103013093AF032093AE0355
:1019400020910001309101012115310541F42DB79D
:101950003EB74091040150910501241B350BE091E5
:10196000AE03F091AF03E217F307A0F42E1B3F0B79
:101970002817390778F0AC014E5F5F4F2417350701
:1019800048F04E0F5F1F5093AF034093AE03819317
:10199000919302C0E0E0F0E0CF01DF91CF91089594
:1019A000CF93DF93009709F487C0FC01329713822D
:1019B0001282C091B003D091B103209781F42081AD
:1019C0003181280F391F8091AE039091AF038217A8
:1019D000930779F5F093AF03E093AE036DC0DE019A
:1019E00020E030E0AE17BF0750F412964D915C91A5
:1019F00013979D014115510509F1DA01F3CFB38326
:101A0000A28340815181840F951F8A179B0771F42F
:101A10008D919C911197840F951F029691838083DD
:101A200012968D919C911397938382832115310592
:101A300029F4F093B103E093B0033EC0D9011396AB
:101A4000FC93EE9312974D915D91A40FB51FEA1789
:101A5000FB0779F480819181840F951F0296D9014B
:101A600011969C938E938281938113969C938E936F
:101A70001297E0E0F0E08A819B81009719F0FE0167
:101A8000EC01F9CFCE01029628813981820F931F94
:101A90002091AE033091AF032817390769F43097CE
:101AA00029F41092B1031092B00302C01382128283
:101AB000D093AF03C093AE03DF91CF910895A0E020
:101AC000B0E0E5E6FDE00C94880EEC01CB01209738
:101AD00019F40E94380CB8C0FE01E60FF71F9E01F2
:101AE00022503109E217F30708F4ACC0D9010D9177
:101AF0001C91119706171707B8F00530110508F467
:101B00009FC0A801445051094617570708F498C0D0
:101B100002501109061B170B019311936D937C93CF
:101B2000CF010E94D00C8CC05B01A01AB10A4E01FB
:101B3000800E911EA091B003B091B103612C712C65
:101B400060E070E0109709F449C0A815B905C9F51F
:101B5000ED90FC901197670142E0C40ED11CCA14AD
:101B6000DB0478F147018A189B08640142E0C40E47
:101B7000D11C1296BC9012971396AC91B5E0CB167F
:101B8000D10440F0B282A38391828082D9018D93E7
:101B90009C9309C00E5F1F4F0E0D1F1DF90111838D
:101BA0000083EB2DFA2F6115710531F0DB011396DF
:101BB000FC93EE93129744C0F093B103E093B0030B
:101BC0003FC06D917C9111976616770608F43B0132
:101BD000BD0112960D90BC91A02DB4CF6091AE03C3
:101BE0007091AF0368157905E9F468167906D0F4A9
:101BF00040910001509101014115510541F44DB74B
:101C00005EB76091040170910501461B570BE41704
:101C1000F507C0F4F093AF03E093AE03F9019183AD
:101C200080830EC00E94380C7C01009759F0A801F7
:101C3000BE010E94290ECE010E94D00CC70104C033
:101C4000CE0102C080E090E0CDB7DEB7EEE00C94AC
:101C5000A40EFB01DC0102C001900D9241505040E6
:101C6000D8F70895FB01DC0101900D920020E1F707
:101C700008954532510520F4423010F00C94440E82
:101C8000FB011082CB010895BB27FB015527AA2732
:101C9000880F991FAA1FA41710F0A41B83955051F9
:101CA000B9F7A05DAA3308F0A95DA193009779F771
:101CB000B111B1931192CB010C94740EF999FECF2E
:101CC00092BD81BDF89A992780B50895262FF9997C
:101CD000FECF1FBA92BD81BD20BD0FB6F894FA9A0F
:101CE000F99A0FBE01960895DC01FC01672F7191EE
:101CF0007723E1F7329704C07C916D9370836291F2
:101D0000AE17BF07C8F308952F923F924F925F928C
:101D10006F927F928F929F92AF92BF92CF92DF92FB
:101D2000EF92FF920F931F93CF93DF93CDB7DEB760
:101D3000CA1BDB0B0FB6F894DEBF0FBECDBF0994F4
:101D40002A88398848885F846E847D848C849B844B
:101D5000AA84B984C884DF80EE80FD800C811B8159
:101D6000AA81B981CE0FD11D0FB6F894DEBF0FBE88
:0A1D7000CDBFED010895F894FFCFF8
:101D7A000000B20380001F3F3F000000FFFFFFFF8B
:101D8A00000000FF000000FFFFFF0000FFFFFF0050
:101D9A00FFFF2100373737370000003700000037D0
:101DAA00373700003737370037110E0F1003040694
:101DBA000708090A0B0C0D05060701002323232334
:101DCA00232069466C6167732076002E00204865DF
:101DDA006C6C6F2100000000006E03DA04EE020949
:061DEA0003FB024C0300A4
:00000001FF
