:100000000C9463000C948B000C948B000C948B006C
:100010000C948B000C948B000C948B000C948B0034
:100020000C948B000C94AB050C948B000C948B00FF
:100030000C948B000C948B000C948B000C948B0014
:100040000C9483060C948B000C94F2070C944008DB
:100050000C948B000C948B000C948B000C948B00F4
:100060000C948B000C948B000000000024002700EF
:100070002A0000000000250028002B0000000000DE
:1000800023002600290004040404040404040202DA
:100090000202020203030303030301020408102007
:1000A0004080010204081020010204081020000012
:1000B0000007000201000003040600000000000029
:1000C00000007406AC0911241FBECFEFD8E0DEBFDC
:1000D000CDBF11E0A0E0B1E0EEE3FEE102C005908B
:1000E0000D92A637B107D9F713E0A6E7B1E001C03A
:1000F0001D92AE3BB107E1F710E0C6ECD0E004C0C2
:100100002297FE010E94190FC23CD107C9F70E9435
:10011000020A0C941D0F0C940000FB01DC0102C0CC
:1001200001900D9241505040D8F70895FB01DC0139
:1001300001900D920020E1F70895FB019F014230EC
:1001400074F0453264F4642F77270E94030F805DBA
:100150008A330CF0895D8193CB010097A1F710825F
:10016000C9010C94B300DC01FC01672F7191772366
:10017000E1F7329704C07C916D9370836291AE1762
:10018000BF07C8F30895EF92FF920F931F93DF9379
:10019000CF93CDB7DEB728970FB6F894DEBF0FBE6A
:1001A000CDBFFE01319698E0DF011D929A95E9F7E7
:1001B0009FEF99839A83909176019B839091180188
:1001C0009C838D836E834F838F0189E0E82EF12C11
:1001D000EC0EFD1E09C088E993E0F80161918F01E2
:1001E0004AE050E00E94EA0A0E151F05A1F7289682
:1001F0000FB6F894DEBF0FBECDBFCF91DF911F9138
:100200000F91FF90EF900895AF92BF92CF92DF923F
:10021000EF92FF920F931F9388E993E00E940209E7
:10022000892B09F4D0C088E993E00E9413098F3F1D
:10023000910509F4C8C088E993E00E943309ECCF26
:1002400088E993E00E9433098F3F910509F0C2C00D
:1002500088E993E00E9413098F3F910509F474C067
:1002600088E993E00E9433099093780180937701A5
:1002700088E993E00E94330990937A018093790191
:10028000CC2443E0A42E38E1B32E88E993E00E9409
:10029000330990937C0180937B01E0904C01FF2413
:1002A0008C01000F111F080F191F075E1E4FD80188
:1002B00011968C9190E0FC01EE9DC001EF9D900D98
:1002C000FE9D900D112464E670E00E94CE0ED62EA5
:1002D000D80112968C9190E0FC01EE9DC001EF9D3B
:1002E000900DFE9D900D112464E670E00E94CE0EEC
:1002F000462F209177012C0D2A9D90011124809189
:1003000079018B9DC0011124280F391FE09104034E
:10031000F0910503E20FF31FD8018C9190E09C014E
:100320002E9DC0012F9D900D3E9D900D112464E6E1
:1003300070E00E94CE0E6083D1824283C39434E089
:10034000C31609F0A2CF46C088E993E00E943309A2
:1003500088E993E00E943309082F88E993E00E941E
:100360003309E82E88E993E00E943309013AE9F065
:10037000023A18F4003A71F505C0023A09F1093A57
:1003800049F518C0F894209102033091030380913D
:100390000403909105039093030380930203309329
:1003A000050320930403789415C0E0927F01109216
:1003B0007E0110C0E0918001F091810109950AC091
:1003C000E0924C0107C088E993E00E940209089777
:1003D0000CF036CF1F910F91FF90EF90DF90CF90F0
:1003E000BF90AF90089580917D018F5F80937D01D4
:1003F000815029F480EB62ED40E00E94C3009091AF
:100400007F019923C9F080917E01890F80937E013D
:10041000882391F4F8942091020330910303809192
:100420000403909105039093030380930203309398
:10043000050320930403789462E070E080E090E08C
:100440000E94CB060895CF92DF92EF92FF921F9306
:10045000DF93CF93CDB7DEB72D970FB6F894DEBFFD
:100460000FBECDBFDE011196E8E5F1E08DE0019011
:100470000D928150E1F77E010894E11CF11C5EE0D1
:10048000C52ED12CCC0EDD1EF70111917F01812FDD
:1004900061E00E945F07812F60E00E949E07EC14DC
:1004A000FD0491F72D960FB6F894DEBF0FBECDBFB9
:1004B000CF91DF911F91FF90EF90DF90CF90089543
:1004C000AF92BF92CF92DF92EF92FF920F931F9362
:1004D000DF93CF93CDB7DEB76A970FB6F894DEBF40
:1004E0000FBECDBF82E891E00E942302E4E9F0E074
:1004F000E4910E2F10E0000F111FC8018E589F4F7E
:10050000FC01A591B4918C912AEA30E0F901E490C4
:100510008E298C9382E891E061E00E945503C80126
:100520008E589F4FFC01A591B4918C919E2D909572
:1005300089238C9382E891E061E00E945503C80111
:100540008E589F4FFC01A591B4918C918E298C936C
:1005500082E891E061E00E945503109206038091C9
:10056000B10085608093B1008091B1008D7F809350
:10057000B1008091B0008C7F8093B0008091B60074
:1005800080628093B60080917000816080937000DB
:100590008FEF8093B200789482E891E069E471E093
:1005A0000E94560388E993E040E855E260E070E07D
:1005B0000E947B08FDE0AF2EB12CAC0EBD1EC50124
:1005C00060E071E00E94280CE6E0CE2ED12CCC0E2B
:1005D000DD1EC601609176014AE00E945B0CC501F8
:1005E000B6010E94F10B6EE071E00E94D50B7C0118
:1005F0008E010C5E1F4FC801609118014AE00E94F5
:100600005B0CC701B8010E94F10B60E171E00E9430
:10061000D50BBC0188E993E00E943B0BC8010E9406
:100620008D0CC6010E948D0CC5010E94930CDE0149
:100630001196E3E5F1E085E001900D928150E1F73C
:100640008E010F5F1F4F76E0E72EF12CEC0EFD1EA2
:1006500018C0F80181918F0190E0FC01EE0FFF1F9F
:10066000E80FF91FE75EFE4F82E891E0608141816B
:1006700022810E940D0468EE73E080E090E00E9409
:10068000CB060E151F0529F76A960FB6F894DEBF44
:100690000FBECDBFCF91DF911F910F91FF90EF90D3
:1006A000DF90CF90BF90AF90089508953F924F9202
:1006B0005F926F927F928F929F92AF92BF92CF92F2
:1006C000DF92EF92FF920F931F93CF93DF93362E1B
:1006D000472E25E930E0F901849190E0880F991FB9
:1006E0008E589F4FFC01A591B4919C9149EA50E02E
:1006F000FA018491809598239C9339010894611C98
:10070000711CF301849190E0880F991F8E589F4FC0
:10071000FC01A591B4919C914A010894810891082B
:10072000F4018491809598239C9300E028503040F8
:1007300048505040F9018491A82FB0E0AA0FBB1F88
:10074000AE58BF4FFD01C590D490FA018491582E48
:100750005094FD01E590F490A82E21503040F9010D
:100760008491482F50E0440F551F4E585F4FFA01B7
:10077000659174912BC012969C911297990F990FC5
:1007800020E0E0EAF0E01491B12EB094FA01C591B6
:10079000D49197FF04C0F70180818A2903C0F60134
:1007A000808185218083FB0180818B2180838881EA
:1007B000812B88832F5F263011F0990FEACF3150BB
:1007C00011973323C1F60F5F083031F0832D942D3C
:1007D0009C01D90133E0CFCFF301849190E0880FE1
:1007E000991F8E589F4FFC01A591B4918C91F401F3
:1007F0009491892B8C93DF91CF911F910F91FF9052
:10080000EF90DF90CF90BF90AF909F908F907F90B0
:100810006F905F904F903F900895FC01EE57FE4F10
:1008200080819181E258F14050E00FC06C931196A5
:100830004C93119712962C93129713963F5F383072
:10084000A9F748965F5F583019F0DC0130E0EECF31
:10085000F894DF01A058BE4F2D913C911197EE57AF
:10086000FE4F808191818D939C9331832083789476
:1008700008952F923F924F925F927F928F929F9214
:10088000AF92BF92CF92DF92EF92FF920F931F939E
:10089000DF93CF93CDB7DEB72A970FB6F894DEBFBC
:1008A0000FBECDBFDC0146E950E0FA01849190E033
:1008B000880F991F8E589F4FFC0165917491FB0121
:1008C000808128EA30E0F9019491892BFB01808333
:1008D000E5E9F0E0849190E0880F991F8E589F4FD2
:1008E000FC0165917491FB019081E9EAF0E084914B
:1008F00080959823FB019083AC57BE4F8C9128E1E3
:10090000829FC001112414972D913C91280F391F0B
:100910003E832D83772437EF832E3FEF932E840E73
:10092000951EF4018491682F70E0660F771F6E5852
:100930007F4FFB01259134913A832983FB01259058
:1009400034904A505040FA018491682F70E0660F4D
:10095000771F6E587F4F7C836B83FB0145905490CB
:10096000AD81BE8112965C9140E021EA30E0F90150
:100970008491D82ED094E82EFB010591149121503A
:100980003040F9019491F92EF094FB01A590B490B8
:1009900057FF05C0D1018C918E298C9305C0E98148
:1009A000FA8180818D218083D8018C9120EA30E00A
:1009B0008F218C93F5018081892B80834F5F483094
:1009C00011F0550FE5CFAD81BE8111960C9110E06D
:1009D0002F5F3F4FF4018491482F50E0440F551F83
:1009E0004E585F4FFA01E590F490F901849121503F
:1009F0003040B82EB094FA0145915491C82EF901B7
:100A00009491D92ED094EB81FC81A591B491BA87B1
:100A1000A98707FF05C0FA0180818C29808304C063
:100A2000D7018C918B218C93F20180818D21808361
:100A3000A985BA858C91892B8C931F5F183011F092
:100A4000000FE7CFED81FE81E080FF24F401849167
:100A5000482F50E0440F551F4E585F4FFA01C59084
:100A6000D49081EA90E0FC018491A82EA094FA0130
:100A700005911491B82EECE8F0E08491482F50E0F5
:100A8000440F551F4E585F4F58874F83FA014591C9
:100A90005491F9019491292F2095EF81F885A59122
:100AA000B491BA87A987E7FE05C0F80180818B2938
:100AB000808304C0D6018C918A218C93FA018081B5
:100AC00082238083A985BA858C91892B8C93F3949A
:100AD000B8E0FB1611F0EE0CE6CF7394E8E07E165A
:100AE00039F02D813E812D5F3F4F3E832D8338CFDE
:100AF000E5E9F0E0849190E0880F991F9C012E5861
:100B00003F4FF901A591B4912C91E9EAF0E03491BD
:100B1000232B2C938E589F4FFC01A591B4918C915F
:100B2000309583238C932A960FB6F894DEBF0FBEC0
:100B3000CDBFCF91DF911F910F91FF90EF90DF908C
:100B4000CF90BF90AF909F908F907F905F904F908D
:100B50003F902F9008951F920F920FB60F9211247D
:100B60002F933F934F935F936F937F938F939F93B5
:100B7000AF93BF93EF93FF938DE38093B20085B162
:100B8000807C85B98BB1807C8BB982E891E00E9432
:100B9000390480910603833009F440C0843030F476
:100BA0008130F9F0823008F02BC00DC0853009F497
:100BB00051C0853008F440C0863009F459C08730F0
:100BC00009F072C063C0EEE8F0E0E491F0E0EE0FEF
:100BD000FF1FEE58FF4FA591B491E2EAF0E0E491D7
:100BE0000DC0EFE8F0E0E491F0E0EE0FFF1FEE58EB
:100BF000FF4FA591B491E3EAF0E0E491EC935AC081
:100C0000E0E9F0E0E491F0E0EE0FFF1FEE58FF4F57
:100C1000A591B491E4EAF0E0E491F0CFE1E9F0E0ED
:100C2000E491F0E0EE0FFF1FEE58FF4FA591B49155
:100C3000E5EAF0E0E491E2CFE2E9F0E0E491F0E00F
:100C4000EE0FFF1FEE58FF4FA591B491E6EAF0E0DA
:100C5000E491D4CFE3E9F0E0E491F0E0EE0FFF1F80
:100C6000EE58FF4FA591B491E7EAF0E0E491C6CFCA
:100C7000E9E8F0E0E491F0E0EE0FFF1FEE58FF4FDF
:100C8000A591B491EDE9F0E0E491B8CFEAE8F0E0A5
:100C9000E491F0E0EE0FFF1FEE58FF4FA591B491E5
:100CA000EEE9F0E0E491AACF85B1807C85B98BB103
:100CB000807C8BB9809106038F5F80930603883018
:100CC00010F010920603FF91EF91BF91AF919F91A9
:100CD0008F917F916F915F914F913F912F910F90E5
:100CE0000FBE0F901F9018951092060382E891E0B6
:100CF000909305038093040382E492E090930303AE
:100D00008093020308951F920F920FB60F92112441
:100D10002F933F938F939F93AF93BF9380910B0338
:100D200090910C03A0910D03B0910E0330910F032D
:100D30000196A11DB11D232F2D5F2D3720F02D57BA
:100D40000196A11DB11D20930F0380930B03909377
:100D50000C03A0930D03B0930E03809107039091B1
:100D60000803A0910903B0910A030196A11DB11DCA
:100D70008093070390930803A0930903B0930A0399
:100D8000BF91AF919F918F913F912F910F900FBE87
:100D90000F901F9018959B01AC017FB7F89480913C
:100DA000070390910803A0910903B0910A0366B567
:100DB000A89B05C06F3F19F00196A11DB11D7FBF13
:100DC000BA2FA92F982F8827860F911DA11DB11D1D
:100DD00062E0880F991FAA1FBB1F6A95D1F7BC015B
:100DE0002DC0FFB7F8948091070390910803A0915C
:100DF0000903B0910A03E6B5A89B05C0EF3F19F0BF
:100E00000196A11DB11DFFBFBA2FA92F982F8827CA
:100E10008E0F911DA11DB11DE2E0880F991FAA1F21
:100E2000BB1FEA95D1F7861B970B885E9340C8F2EB
:100E3000215030404040504068517C4F21153105D1
:100E40004105510571F60895789484B5826084BD9A
:100E500084B5816084BD85B5826085BD85B58160BE
:100E600085BDEEE6F0E0808181608083E1E8F0E01E
:100E70001082808182608083808181608083E0E84D
:100E8000F0E0808181608083E1EBF0E0808184602C
:100E90008083E0EBF0E0808181608083EAE7F0E02E
:100EA0008081846080838081826080838081816092
:100EB00080838081806880831092C1000895CF93E1
:100EC000DF93482F50E0CA0186569F4FFC013491B2
:100ED0004A575F4FFA018491882369F190E0880FA7
:100EE000991FFC01E859FF4FA591B491FC01EE5800
:100EF000FF4FC591D491662351F42FB7F8948C918C
:100F0000932F909589238C93888189230BC062301D
:100F100061F42FB7F8948C91932F909589238C933B
:100F20008881832B88832FBF06C09FB7F8948C914C
:100F3000832B8C939FBFDF91CF910895482F50E072
:100F4000CA0182559F4FFC012491CA0186569F4FCA
:100F5000FC0194914A575F4FFA013491332309F40D
:100F600040C0222351F1233071F0243028F4213085
:100F7000A1F0223011F514C02630B1F02730C1F0B5
:100F80002430D9F404C0809180008F7703C0809111
:100F900080008F7D8093800010C084B58F7702C061
:100FA00084B58F7D84BD09C08091B0008F7703C068
:100FB0008091B0008F7D8093B000E32FF0E0EE0FC2
:100FC000FF1FEE58FF4FA591B4912FB7F8946623F9
:100FD00021F48C919095892302C08C91892B8C935C
:100FE0002FBF08951F920F920FB60F9211242F93C7
:100FF0003F934F938F939F93EF93FF938091C00004
:1010000082FD1DC04091C6002091500330915103D4
:101010002F5F3F4F2F733070809152039091530395
:101020002817390771F0E0915003F0915103E05F08
:10103000FC4F4083309351032093500302C08091B2
:10104000C600FF91EF919F918F914F913F912F910A
:101050000F900FBE0F901F901895E091A403F09190
:10106000A503E05CFF4F8191919120813181821B2A
:10107000930B8F739070892B11F00E9404010895D7
:101080001F920F920FB60F9211242F933F938F93BD
:101090009F93EF93FF932091940330919503809158
:1010A0009603909197032817390731F48091C10076
:1010B0008F7D8093C10014C0E0919603F091970357
:1010C000EC5AFC4F208180919603909197030196F2
:1010D0008F73907090939703809396032093C6002C
:1010E000FF91EF919F918F913F912F910F900FBEA4
:1010F0000F901F901895AF92BF92DF92EF92FF92E0
:101100000F931F93CF93DF93EC017A018B01DD24C2
:10111000403081EE580780E0680780E0780711F0E2
:10112000DD24D39491E0A92EB12CEC89FD89DD203A
:1011300069F0C50108A002C0880F991F0A94E2F760
:10114000808360E079E08DE390E005C0108260E884
:1011500074E88EE190E0A80197010E94E10E215011
:10116000304040405040569547953795279580E14F
:101170002030380720F0DD2011F0DD24D6CFE889BB
:10118000F9893083EA89FB89208319A2EE89FF89D6
:10119000408121E030E0C9010C8C02C0880F991F0A
:1011A0000A94E2F7482B4083EE89FF894081C90108
:1011B0000D8C02C0880F991F0A94E2F7482B4083D8
:1011C000EE89FF894081C9010E8C02C0880F991FEA
:1011D0000A94E2F7482B4083EE89FF8980810F8CC7
:1011E00002C0220F331F0A94E2F7209528232083A0
:1011F000DF91CF911F910F91FF90EF90DF90BF9003
:10120000AF900895DC011C96ED91FC911D97E05C78
:10121000FF4F2191319180819181281B390B2F73D0
:101220003070C9010895DC011C96ED91FC911D9769
:10123000E05CFF4F20813181E054F040DF01AE5B84
:10124000BF4F8D919C9111972817390719F42FEFF3
:101250003FEF07C08D919C91E80FF91F8081282FE7
:1012600030E0C9010895DC011C96ED91FC911D97B9
:10127000E05CFF4F20813181E054F040DF01AE5B44
:10128000BF4F8D919C9111972817390719F42FEFB3
:101290003FEF10C08D919C911197E80FF91F2081AD
:1012A0008D919C91119701968F73907011969C93DC
:1012B0008E9330E0C9010895DC0191968C9191974D
:1012C000882339F05496ED91FC915597808186FFE3
:1012D000F9CF91961C920895CF93DF93EC01EE85A0
:1012E000FF85E05CFF4F20813181E054F0402F5FAB
:1012F0003F4F2F733070DF01AE5BBF4F8D919C91DC
:10130000119728173907D1F3E05CFF4F8081918155
:10131000E054F040E80FF91F6083EE85FF85E05C44
:10132000FF4F31832083EE89FF89208181E090E0A7
:101330000F8C02C0880F991F0A94E2F7282B208394
:1013400081E089A3EC89FD8980818064808381E0CC
:1013500090E0DF91CF91089510929B0310929A0331
:1013600088EE93E0A0E0B0E080939C0390939D030F
:10137000A0939E03B0939F0389E691E09093990315
:101380008093980380E193E09093A5038093A40356
:1013900084E593E09093A7038093A60385EC90E007
:1013A0009093A9038093A80384EC90E09093AB03FF
:1013B0008093AA0380EC90E09093AD038093AC03FC
:1013C00081EC90E09093AF038093AE0382EC90E0C9
:1013D0009093B1038093B00386EC90E09093B303B5
:1013E0008093B20384E08093B40383E08093B503D9
:1013F00087E08093B60385E08093B70381E0809314
:10140000B8030895CF93DF930E9424070E946002DF
:10141000CDE2D8E00E94F3012097E1F30E942D086D
:10142000F9CFCF92DF92EF92FF920F931F93CF935A
:10143000DF937C016B018A01C0E0D0E00FC0D601D0
:101440006D916D01D701ED91FC910190F081E02D3E
:10145000C7010995C80FD91F01501040011511058A
:1014600071F7CE01DF91CF911F910F91FF90EF9017
:10147000DF90CF900895EF92FF920F931F938C010E
:10148000DC01ED91FC910190F081E02D6DE009957A
:101490007C01D801ED91FC910190F081E02DC80113
:1014A0006AE009959C012E0D3F1DC9011F910F9106
:1014B000FF90EF900895CF93DF93EC0161157105D4
:1014C00019F420E030E00FC0DB010D900020E9F7B7
:1014D0001197A61BB70BE881F9810280F381E02DFB
:1014E000AD0109959C01C901DF91CF9108954F92FB
:1014F0005F927F928F929F92AF92BF92CF92DF9234
:10150000EF92FF920F931F93DF93CF93CDB7DEB788
:10151000A1970FB6F894DEBF0FBECDBF2C01742E7D
:10152000CB01223008F42AE019A231E2C32ED12CDB
:10153000CC0EDD1E822E9924AA24BB24672D752F84
:10154000A50194010E94E10E79018A01C801B70149
:10155000A50194010E94AF0E472D461B0894C108B7
:10156000D1084A3014F4405D01C0495CF601408363
:10157000E114F1040105110521F07E2C5F2DC80155
:10158000DDCFC201B6010E945B0AA1960FB6F894A6
:10159000DEBF0FBECDBFCF91DF911F910F91FF90A6
:1015A000EF90DF90CF90BF90AF909F908F907F9003
:1015B0005F904F900895DC012115310541F4ED91C4
:1015C000FC910190F081E02D642F099508950E940F
:1015D000770A0895CF92DF92EF92FF920F931F93B5
:1015E0006C01E62E9A01FF2400E010E0B801A7018B
:1015F0000E94DB0A8C01C6010E943B0A080F191FDA
:10160000C8011F910F91FF90EF90DF90CF90089548
:10161000AF92BF92CF92DF92EF92FF920F931F9300
:10162000CF93DF935C016B01EE24FF24C0E0D0E098
:1016300010C0D501ED91FC9100811181C601BE0160
:101640000E944F0B682FC501F8010995E80EF91E9D
:101650002196F60184819581C817D90750F3C701F7
:10166000DF91CF911F910F91FF90EF90DF90CF907E
:10167000BF90AF900895EF92FF920F931F937C015C
:101680000E94080B8C01C7010E943B0A9C01200F9D
:10169000311FC9011F910F91FF90EF900895FC0138
:1016A000848195816817790748F40190F081E02DD5
:1016B000309721F0E60FF71F8081089580E00895AC
:1016C0000F931F93CF93DF93EC018B016F5F7F4FDD
:1016D000888199810E94CE0D009711F480E005C0A9
:1016E000998388831B830A8381E0DF91CF911F91C7
:1016F0000F910895CF93DF93EC0188819981892B15
:1017000029F08A819B818617970760F4CE010E9499
:10171000600B882341F08C819D81892B19F4E8812D
:10172000F981108281E0DF91CF910895EF92FF92CD
:101730000F931F93CF93DF93EC017B016C817D812D
:10174000E114F104C1F04115510599F08A01060F29
:10175000171FB8010E947A0B882369F0888199814C
:101760002C813D81820F931FB7010E9496001D833B
:101770000C8381E001C080E0DF91CF911F910F9138
:10178000FF90EF900895CF93DF93EC0188819981CA
:10179000009711F00E94360D198218821D821C825A
:1017A0001B821A82DF91CF9108950F931F93182FF8
:1017B000092F6115710561F0DB010D900020E9F73B
:1017C0001197A61BB70BAD010E94960B882321F43D
:1017D000812F902F0E94C30B812F902F1F910F916B
:1017E00008950F931F93182F092FFB0160817181BA
:1017F000448155810E94960B882321F4812F902FDC
:101800000E94C30B812F902F1F910F910895EF928B
:10181000FF920F931F93CF93DF93EC017B018A011B
:10182000BA010E947A0B882321F4CE010E94C30BD7
:1018300007C01D830C8388819981B7010E9496009F
:10184000CE01DF91CF911F910F91FF90EF900895FE
:10185000CF93DF93EC01198218821B821A821D82BA
:101860001C821E826115710551F0DB010D90002074
:10187000E9F71197A61BB70BAD010E94070CDF918A
:10188000CF9108950F931F93182F092F611571059C
:1018900059F0DB010D900020E9F71197A61BB70B5B
:1018A000AD010E94070C02C00E94C30B812F902F34
:1018B0001F910F910895EF92FF920F931F93DF9363
:1018C000CF93CDB7DEB729970FB6F894DEBF0FBE22
:1018D000CDBF8C01862FF8011182108213821282F3
:1018E00015821482168290E07E010894E11CF11C9E
:1018F000B70150E00E949D00C801B7010E94420C50
:1019000029960FB6F894DEBF0FBECDBFCF91DF9101
:101910001F910F91FF90EF900895FC0180819181BC
:101920000E94360D0895FC01808191810E94360D40
:1019300008950F931F93CF93DF93BC0182309105DD
:1019400010F462E070E0E091BC03F091BD0340E070
:1019500050E0A0E0B0E024C0808191818617970715
:10196000D0F08617970771F482819381109729F040
:1019700013969C938E9312972CC09093BD038093E3
:10198000BC0327C04115510519F08417950718F4B9
:101990008D01AC01EF01DF01828193819C01F9018E
:1019A0003097D1F641155105F9F0CA01861B970B06
:1019B0008430910580F48A819B810115110521F005
:1019C000F8019383828304C09093BD038093BC038A
:1019D000FE01329645C0FE01E80FF91F6193719335
:1019E0000297998388833CC08091BA039091BB038E
:1019F000892B41F480914F01909150019093BB034A
:101A00008093BA0340915101509152014115510503
:101A100041F44DB75EB780914D0190914E01481B46
:101A2000590B2091BA033091BB0324173507B0F44A
:101A3000CA01821B930B8617970780F0AB014E5F9C
:101A40005F4F8417950750F0420F531F5093BB030D
:101A50004093BA03F9016193719302C0E0E0F0E0B2
:101A6000CF01DF91CF911F910F910895CF93DF9315
:101A70009C01009709F48FC0EC0122971B821A8207
:101A80006091BC037091BD036115710581F488817B
:101A90009981820F931F2091BA033091BB032817BD
:101AA000390739F5D093BB03C093BA0374C0DB0187
:101AB00040E050E0AC17BD0708F1BB83AA83FE01EC
:101AC00021913191E20FF31FAE17BF0779F48D9189
:101AD0009C911197280F391F2E5F3F4F3983288320
:101AE00012968D919C9113979B838A834115510582
:101AF00071F4D093BD03C093BC034DC012968D9179
:101B00009C911397AD01009711F0DC01D3CFDA015E
:101B10001396DC93CE931297FA0121913191E20F43
:101B2000F31FCE17DF0769F488819981280F391FC9
:101B30002E5F3F4FFA01318320838A819B819383FB
:101B40008283E0E0F0E0DB0112968D919C91139787
:101B5000009719F0BC01FD01F6CFAB014E5F5F4F5E
:101B6000DB018D919C91840F951F2091BA033091D8
:101B7000BB032817390779F4309729F41092BD0375
:101B80001092BC0302C01382128242505040509304
:101B9000BB034093BA03DF91CF9108956F927F9278
:101BA0008F929F92AF92BF92CF92DF92EF92FF926D
:101BB0000F931F93CF93DF938C01009729F4CB01F0
:101BC0000E94990C8C01BBC08EEFE82E8FEFF82E8F
:101BD000E00EF11E4801860E971E8E149F0408F435
:101BE000ACC0D7014D915C91119746175707B8F0DB
:101BF0004530510508F4A3C0CA010497861797071A
:101C000008F49DC042505040461B570BF4014193CD
:101C100051936D937C93CF010E94360D90C05B0170
:101C2000A41AB50A3801640E751EA091BC03B091C8
:101C3000BD03E0E0F0E0CC24DD2447C0A615B705E5
:101C4000A9F5CD91DC911197CE0102968A159B05DD
:101C500068F1CE018A199B09029612962C9112976F
:101C600013963C91059758F0F40122833383CA19E7
:101C7000DB09D183C083D7016D937C9309C04E5F8C
:101C80005F4F4C0F5D1FF70151834083C901FC0179
:101C9000C114D10431F0D6011396FC93EE93129740
:101CA0004EC0F093BD03E093BC0349C08D919C915D
:101CB0001197E817F90708F4FC016D0112968C9151
:101CC000129713969C919C01D901109709F0B6CFF9
:101CD0008091BA039091BB0386159705E9F4E61746
:101CE000F707D0F4209151013091520121153105AF
:101CF00041F42DB73EB780914D0190914E01281BC4
:101D0000390B82169306C8F49092BB038092BA03F3
:101D1000F7017183608313C0CB010E94990CEC0121
:101D2000009759F0D7014D915C91B8010E948D0048
:101D3000C8010E94360D8E0102C000E010E0C8010B
:101D4000DF91CF911F910F91FF90EF90DF90CF9097
:101D5000BF90AF909F908F907F906F900895629FFB
:101D6000D001739FF001829FE00DF11D649FE00D93
:101D7000F11D929FF00D839FF00D749FF00D659FF4
:101D8000F00D9927729FB00DE11DF91F639FB00DF3
:101D9000E11DF91FBD01CF011124089597FB092E04
:101DA00007260AD077FD04D02ED006D000201AF4E2
:101DB000709561957F4F0895F6F7909581959F4FA7
:101DC0000895A1E21A2EAA1BBB1BFD010DC0AA1F7C
:101DD000BB1FEE1FFF1FA217B307E407F50720F094
:101DE000A21BB30BE40BF50B661F771F881F991F0F
:101DF0001A9469F760957095809590959B01AC0158
:101E0000BD01CF010895AA1BBB1B51E107C0AA1F4A
:101E1000BB1FA617B70710F0A61BB70B881F991F8B
:101E20005A95A9F780959095BC01CD010895EE0FC4
:0E1E3000FF1F0590F491E02D0994F894FFCF68
:101E3E0023232323232069464C41472076002E007E
:101E4E002048656C6C6F210015000000FFFFFFFF3E
:101E5E00000000FF000000FFFFFF0000FFFFFF007B
:101E6E00FFFF2100373737370000003700000037FB
:101E7E00373700003737370037242D3F648000BED8
:101E8E0003000005060701000E0F100304060708E5
:101E9E00090A0B0C0D000000006C09110A0209332F
:061EAE000913095C0900A4
:00000001FF
